{"project/contracts/Airdrop.sol":{"Airdrop":{"abi":[{"inputs":[{"internalType":"address","name":"_nocenite","type":"address"},{"internalType":"address","name":"_nocenix","type":"address"},{"internalType":"address","name":"initialOwner","type":"address"}],"stateMutability":"nonpayable","type":"constructor"},{"inputs":[{"internalType":"address","name":"owner","type":"address"}],"name":"OwnableInvalidOwner","type":"error"},{"inputs":[{"internalType":"address","name":"account","type":"address"}],"name":"OwnableUnauthorizedAccount","type":"error"},{"anonymous":false,"inputs":[{"indexed":true,"internalType":"uint256","name":"weekNumber","type":"uint256"},{"indexed":false,"internalType":"uint256","name":"totalAmount","type":"uint256"},{"indexed":false,"internalType":"uint256","name":"recipientCount","type":"uint256"}],"name":"AirdropExecuted","type":"event"},{"anonymous":false,"inputs":[{"indexed":true,"internalType":"address","name":"previousOwner","type":"address"},{"indexed":true,"internalType":"address","name":"newOwner","type":"address"}],"name":"OwnershipTransferred","type":"event"},{"inputs":[],"name":"WEEK_DURATION","outputs":[{"internalType":"uint256","name":"","type":"uint256"}],"stateMutability":"view","type":"function"},{"inputs":[],"name":"YEAR_DURATION","outputs":[{"internalType":"uint256","name":"","type":"uint256"}],"stateMutability":"view","type":"function"},{"inputs":[],"name":"deploymentTime","outputs":[{"internalType":"uint256","name":"","type":"uint256"}],"stateMutability":"view","type":"function"},{"inputs":[{"internalType":"address[]","name":"recipients","type":"address[]"}],"name":"executeWeeklyAirdrop","outputs":[],"stateMutability":"nonpayable","type":"function"},{"inputs":[],"name":"getAirdropInfo","outputs":[{"internalType":"uint256","name":"currentWeek","type":"uint256"},{"internalType":"uint256","name":"currentYear","type":"uint256"},{"internalType":"uint256","name":"weeklyReward","type":"uint256"},{"internalType":"bool","name":"weekExecuted","type":"bool"},{"internalType":"uint256","name":"totalExecuted","type":"uint256"}],"stateMutability":"view","type":"function"},{"inputs":[],"name":"getCurrentWeek","outputs":[{"internalType":"uint256","name":"","type":"uint256"}],"stateMutability":"view","type":"function"},{"inputs":[],"name":"getCurrentYear","outputs":[{"internalType":"uint256","name":"","type":"uint256"}],"stateMutability":"view","type":"function"},{"inputs":[],"name":"getWeeklyRewardAmount","outputs":[{"internalType":"uint256","name":"","type":"uint256"}],"stateMutability":"view","type":"function"},{"inputs":[],"name":"nocenite","outputs":[{"internalType":"contract Nocenite","name":"","type":"address"}],"stateMutability":"view","type":"function"},{"inputs":[],"name":"nocenix","outputs":[{"internalType":"contract Nocenix","name":"","type":"address"}],"stateMutability":"view","type":"function"},{"inputs":[],"name":"owner","outputs":[{"internalType":"address","name":"","type":"address"}],"stateMutability":"view","type":"function"},{"inputs":[],"name":"renounceOwnership","outputs":[],"stateMutability":"nonpayable","type":"function"},{"inputs":[],"name":"totalAirdropsExecuted","outputs":[{"internalType":"uint256","name":"","type":"uint256"}],"stateMutability":"view","type":"function"},{"inputs":[{"internalType":"address","name":"newOwner","type":"address"}],"name":"transferOwnership","outputs":[],"stateMutability":"nonpayable","type":"function"},{"inputs":[{"internalType":"uint256","name":"","type":"uint256"}],"name":"weeklyAirdropExecuted","outputs":[{"internalType":"bool","name":"","type":"bool"}],"stateMutability":"view","type":"function"}],"evm":{"bytecode":{"linkReferences":{},"object":"60a060405234801561000f575f5ffd5b5060405161138638038061138683398181016040528101906100319190610261565b805f73ffffffffffffffffffffffffffffffffffffffff168173ffffffffffffffffffffffffffffffffffffffff16036100a2575f6040517f1e4fbdf700000000000000000000000000000000000000000000000000000000815260040161009991906102c0565b60405180910390fd5b6100b18161014260201b60201c565b508260015f6101000a81548173ffffffffffffffffffffffffffffffffffffffff021916908373ffffffffffffffffffffffffffffffffffffffff1602179055508160025f6101000a81548173ffffffffffffffffffffffffffffffffffffffff021916908373ffffffffffffffffffffffffffffffffffffffff16021790555042608081815250505050506102d9565b5f5f5f9054906101000a900473ffffffffffffffffffffffffffffffffffffffff169050815f5f6101000a81548173ffffffffffffffffffffffffffffffffffffffff021916908373ffffffffffffffffffffffffffffffffffffffff1602179055508173ffffffffffffffffffffffffffffffffffffffff168173ffffffffffffffffffffffffffffffffffffffff167f8be0079c531659141344cd1fd0a4f28419497f9722a3daafe3b4186f6b6457e060405160405180910390a35050565b5f5ffd5b5f73ffffffffffffffffffffffffffffffffffffffff82169050919050565b5f61023082610207565b9050919050565b61024081610226565b811461024a575f5ffd5b50565b5f8151905061025b81610237565b92915050565b5f5f5f6060848603121561027857610277610203565b5b5f6102858682870161024d565b93505060206102968682870161024d565b92505060406102a78682870161024d565b9150509250925092565b6102ba81610226565b82525050565b5f6020820190506102d35f8301846102b1565b92915050565b6080516110876102ff5f395f81816106b1015281816107e7015261082201526110875ff3fe608060405234801561000f575f5ffd5b50600436106100f3575f3560e01c806377de385111610095578063ce41607a11610064578063ce41607a1461022f578063ecda10f51461024d578063f2fde38b1461026b578063f853630a14610287576100f3565b806377de3851146101b757806383d89228146101d55780638da5cb5b146101f3578063af57676b14610211576100f3565b806332f08873116100d157806332f088731461014f5780636eb227ce14610171578063715018a61461018f57806376f5f70014610199576100f3565b80630dc0ba72146100f75780631704a882146101155780632c9768c814610133575b5f5ffd5b6100ff6102b7565b60405161010c9190610a4c565b60405180910390f35b61011d6102bf565b60405161012a9190610adf565b60405180910390f35b61014d60048036038101906101489190610b61565b6102e4565b005b61015761065b565b604051610168959493929190610bc6565b60405180910390f35b6101796106aa565b6040516101869190610a4c565b60405180910390f35b6101976106ea565b005b6101a16106fd565b6040516101ae9190610a4c565b60405180910390f35b6101bf610704565b6040516101cc9190610a4c565b60405180910390f35b6101dd61078d565b6040516101ea9190610a4c565b60405180910390f35b6101fb610793565b6040516102089190610c37565b60405180910390f35b6102196107ba565b6040516102269190610c70565b60405180910390f35b6102376107df565b6040516102449190610a4c565b60405180910390f35b610255610820565b6040516102629190610a4c565b60405180910390f35b61028560048036038101906102809190610cb3565b610844565b005b6102a1600480360381019061029c9190610d08565b6108c8565b6040516102ae9190610d33565b60405180910390f35b6301e1338081565b60015f9054906101000a900473ffffffffffffffffffffffffffffffffffffffff1681565b6102ec6108e5565b5f6102f56106aa565b905060035f8281526020019081526020015f205f9054906101000a900460ff1615610355576040517f08c379a000000000000000000000000000000000000000000000000000000000815260040161034c90610dcc565b60405180910390fd5b5f61035e610704565b90505f60015f9054906101000a900473ffffffffffffffffffffffffffffffffffffffff1673ffffffffffffffffffffffffffffffffffffffff166318160ddd6040518163ffffffff1660e01b8152600401602060405180830381865afa1580156103cb573d5f5f3e3d5ffd5b505050506040513d601f19601f820116820180604052508101906103ef9190610dfe565b90505f8111610433576040517f08c379a000000000000000000000000000000000000000000000000000000000815260040161042a90610e73565b60405180910390fd5b5f5f90505f5f90505b868690508110156105d8575f87878381811061045b5761045a610e91565b5b90506020020160208101906104709190610cb3565b90505f60015f9054906101000a900473ffffffffffffffffffffffffffffffffffffffff1673ffffffffffffffffffffffffffffffffffffffff166370a08231836040518263ffffffff1660e01b81526004016104cd9190610c37565b602060405180830381865afa1580156104e8573d5f5f3e3d5ffd5b505050506040513d601f19601f8201168201806040525081019061050c9190610dfe565b90505f8111156105c9575f8587836105249190610eeb565b61052e9190610f59565b905060025f9054906101000a900473ffffffffffffffffffffffffffffffffffffffff1673ffffffffffffffffffffffffffffffffffffffff166340c10f1984836040518363ffffffff1660e01b815260040161058c929190610f89565b5f604051808303815f87803b1580156105a3575f5ffd5b505af11580156105b5573d5f5f3e3d5ffd5b5050505084806105c490610fb0565b955050505b5050808060010191505061043c565b50600160035f8681526020019081526020015f205f6101000a81548160ff02191690831515021790555060045f81548092919061061490610fb0565b9190505550837f26f116315511836baaeeec2c9f0d3c114715e197d820abf9cbdd99a9619134f5848360405161064b929190610ff7565b60405180910390a2505050505050565b5f5f5f5f5f6106686106aa565b94506106726107df565b935061067c610704565b925060035f8681526020019081526020015f205f9054906101000a900460ff16915060045490509091929394565b5f62093a807f0000000000000000000000000000000000000000000000000000000000000000426106db919061101e565b6106e59190610f59565b905090565b6106f26108e5565b6106fb5f61096c565b565b62093a8081565b5f5f61070e6107df565b90505f810361072a5769d3c21bcecceda100000091505061078a565b6001810361074557699ed194db19b238c0000091505061078a565b60028103610760576969e10de76676d080000091505061078a565b6003810361077b576934f086f3b33b6840000091505061078a565b69152d02c7e14af68000009150505b90565b60045481565b5f5f5f9054906101000a900473ffffffffffffffffffffffffffffffffffffffff16905090565b60025f9054906101000a900473ffffffffffffffffffffffffffffffffffffffff1681565b5f6301e133807f000000000000000000000000000000000000000000000000000000000000000042610811919061101e565b61081b9190610f59565b905090565b7f000000000000000000000000000000000000000000000000000000000000000081565b61084c6108e5565b5f73ffffffffffffffffffffffffffffffffffffffff168173ffffffffffffffffffffffffffffffffffffffff16036108bc575f6040517f1e4fbdf70000000000000000000000000000000000000000000000000000000081526004016108b39190610c37565b60405180910390fd5b6108c58161096c565b50565b6003602052805f5260405f205f915054906101000a900460ff1681565b6108ed610a2d565b73ffffffffffffffffffffffffffffffffffffffff1661090b610793565b73ffffffffffffffffffffffffffffffffffffffff161461096a5761092e610a2d565b6040517f118cdaa70000000000000000000000000000000000000000000000000000000081526004016109619190610c37565b60405180910390fd5b565b5f5f5f9054906101000a900473ffffffffffffffffffffffffffffffffffffffff169050815f5f6101000a81548173ffffffffffffffffffffffffffffffffffffffff021916908373ffffffffffffffffffffffffffffffffffffffff1602179055508173ffffffffffffffffffffffffffffffffffffffff168173ffffffffffffffffffffffffffffffffffffffff167f8be0079c531659141344cd1fd0a4f28419497f9722a3daafe3b4186f6b6457e060405160405180910390a35050565b5f33905090565b5f819050919050565b610a4681610a34565b82525050565b5f602082019050610a5f5f830184610a3d565b92915050565b5f73ffffffffffffffffffffffffffffffffffffffff82169050919050565b5f819050919050565b5f610aa7610aa2610a9d84610a65565b610a84565b610a65565b9050919050565b5f610ab882610a8d565b9050919050565b5f610ac982610aae565b9050919050565b610ad981610abf565b82525050565b5f602082019050610af25f830184610ad0565b92915050565b5f5ffd5b5f5ffd5b5f5ffd5b5f5ffd5b5f5ffd5b5f5f83601f840112610b2157610b20610b00565b5b8235905067ffffffffffffffff811115610b3e57610b3d610b04565b5b602083019150836020820283011115610b5a57610b59610b08565b5b9250929050565b5f5f60208385031215610b7757610b76610af8565b5b5f83013567ffffffffffffffff811115610b9457610b93610afc565b5b610ba085828601610b0c565b92509250509250929050565b5f8115159050919050565b610bc081610bac565b82525050565b5f60a082019050610bd95f830188610a3d565b610be66020830187610a3d565b610bf36040830186610a3d565b610c006060830185610bb7565b610c0d6080830184610a3d565b9695505050505050565b5f610c2182610a65565b9050919050565b610c3181610c17565b82525050565b5f602082019050610c4a5f830184610c28565b92915050565b5f610c5a82610aae565b9050919050565b610c6a81610c50565b82525050565b5f602082019050610c835f830184610c61565b92915050565b610c9281610c17565b8114610c9c575f5ffd5b50565b5f81359050610cad81610c89565b92915050565b5f60208284031215610cc857610cc7610af8565b5b5f610cd584828501610c9f565b91505092915050565b610ce781610a34565b8114610cf1575f5ffd5b50565b5f81359050610d0281610cde565b92915050565b5f60208284031215610d1d57610d1c610af8565b5b5f610d2a84828501610cf4565b91505092915050565b5f602082019050610d465f830184610bb7565b92915050565b5f82825260208201905092915050565b7f41697264726f7020616c726561647920657865637574656420746869732077655f8201527f656b000000000000000000000000000000000000000000000000000000000000602082015250565b5f610db6602283610d4c565b9150610dc182610d5c565b604082019050919050565b5f6020820190508181035f830152610de381610daa565b9050919050565b5f81519050610df881610cde565b92915050565b5f60208284031215610e1357610e12610af8565b5b5f610e2084828501610dea565b91505092915050565b7f4e6f204e435420746f6b656e73206578697374000000000000000000000000005f82015250565b5f610e5d601383610d4c565b9150610e6882610e29565b602082019050919050565b5f6020820190508181035f830152610e8a81610e51565b9050919050565b7f4e487b71000000000000000000000000000000000000000000000000000000005f52603260045260245ffd5b7f4e487b71000000000000000000000000000000000000000000000000000000005f52601160045260245ffd5b5f610ef582610a34565b9150610f0083610a34565b9250828202610f0e81610a34565b91508282048414831517610f2557610f24610ebe565b5b5092915050565b7f4e487b71000000000000000000000000000000000000000000000000000000005f52601260045260245ffd5b5f610f6382610a34565b9150610f6e83610a34565b925082610f7e57610f7d610f2c565b5b828204905092915050565b5f604082019050610f9c5f830185610c28565b610fa96020830184610a3d565b9392505050565b5f610fba82610a34565b91507fffffffffffffffffffffffffffffffffffffffffffffffffffffffffffffffff8203610fec57610feb610ebe565b5b600182019050919050565b5f60408201905061100a5f830185610a3d565b6110176020830184610a3d565b9392505050565b5f61102882610a34565b915061103383610a34565b925082820390508181111561104b5761104a610ebe565b5b9291505056fea2646970667358221220ddeeca16daa12272c3b08a89a5056ee18b980d67719d7812b74d941ea1bfad1f64736f6c634300081c0033","opcodes":"PUSH1 0xA0 PUSH1 0x40 MSTORE CALLVALUE DUP1 ISZERO PUSH2 0xF JUMPI PUSH0 PUSH0 REVERT JUMPDEST POP PUSH1 0x40 MLOAD PUSH2 0x1386 CODESIZE SUB DUP1 PUSH2 0x1386 DUP4 CODECOPY DUP2 DUP2 ADD PUSH1 0x40 MSTORE DUP2 ADD SWAP1 PUSH2 0x31 SWAP2 SWAP1 PUSH2 0x261 JUMP JUMPDEST DUP1 PUSH0 PUSH20 0xFFFFFFFFFFFFFFFFFFFFFFFFFFFFFFFFFFFFFFFF AND DUP2 PUSH20 0xFFFFFFFFFFFFFFFFFFFFFFFFFFFFFFFFFFFFFFFF AND SUB PUSH2 0xA2 JUMPI PUSH0 PUSH1 0x40 MLOAD PUSH32 0x1E4FBDF700000000000000000000000000000000000000000000000000000000 DUP2 MSTORE PUSH1 0x4 ADD PUSH2 0x99 SWAP2 SWAP1 PUSH2 0x2C0 JUMP JUMPDEST PUSH1 0x40 MLOAD DUP1 SWAP2 SUB SWAP1 REVERT JUMPDEST PUSH2 0xB1 DUP2 PUSH2 0x142 PUSH1 0x20 SHL PUSH1 0x20 SHR JUMP JUMPDEST POP DUP3 PUSH1 0x1 PUSH0 PUSH2 0x100 EXP DUP2 SLOAD DUP2 PUSH20 0xFFFFFFFFFFFFFFFFFFFFFFFFFFFFFFFFFFFFFFFF MUL NOT AND SWAP1 DUP4 PUSH20 0xFFFFFFFFFFFFFFFFFFFFFFFFFFFFFFFFFFFFFFFF AND MUL OR SWAP1 SSTORE POP DUP2 PUSH1 0x2 PUSH0 PUSH2 0x100 EXP DUP2 SLOAD DUP2 PUSH20 0xFFFFFFFFFFFFFFFFFFFFFFFFFFFFFFFFFFFFFFFF MUL NOT AND SWAP1 DUP4 PUSH20 0xFFFFFFFFFFFFFFFFFFFFFFFFFFFFFFFFFFFFFFFF AND MUL OR SWAP1 SSTORE POP TIMESTAMP PUSH1 0x80 DUP2 DUP2 MSTORE POP POP POP POP POP PUSH2 0x2D9 JUMP JUMPDEST PUSH0 PUSH0 PUSH0 SWAP1 SLOAD SWAP1 PUSH2 0x100 EXP SWAP1 DIV PUSH20 0xFFFFFFFFFFFFFFFFFFFFFFFFFFFFFFFFFFFFFFFF AND SWAP1 POP DUP2 PUSH0 PUSH0 PUSH2 0x100 EXP DUP2 SLOAD DUP2 PUSH20 0xFFFFFFFFFFFFFFFFFFFFFFFFFFFFFFFFFFFFFFFF MUL NOT AND SWAP1 DUP4 PUSH20 0xFFFFFFFFFFFFFFFFFFFFFFFFFFFFFFFFFFFFFFFF AND MUL OR SWAP1 SSTORE POP DUP2 PUSH20 0xFFFFFFFFFFFFFFFFFFFFFFFFFFFFFFFFFFFFFFFF AND DUP2 PUSH20 0xFFFFFFFFFFFFFFFFFFFFFFFFFFFFFFFFFFFFFFFF AND PUSH32 0x8BE0079C531659141344CD1FD0A4F28419497F9722A3DAAFE3B4186F6B6457E0 PUSH1 0x40 MLOAD PUSH1 0x40 MLOAD DUP1 SWAP2 SUB SWAP1 LOG3 POP POP JUMP JUMPDEST PUSH0 PUSH0 REVERT JUMPDEST PUSH0 PUSH20 0xFFFFFFFFFFFFFFFFFFFFFFFFFFFFFFFFFFFFFFFF DUP3 AND SWAP1 POP SWAP2 SWAP1 POP JUMP JUMPDEST PUSH0 PUSH2 0x230 DUP3 PUSH2 0x207 JUMP JUMPDEST SWAP1 POP SWAP2 SWAP1 POP JUMP JUMPDEST PUSH2 0x240 DUP2 PUSH2 0x226 JUMP JUMPDEST DUP2 EQ PUSH2 0x24A JUMPI PUSH0 PUSH0 REVERT JUMPDEST POP JUMP JUMPDEST PUSH0 DUP2 MLOAD SWAP1 POP PUSH2 0x25B DUP2 PUSH2 0x237 JUMP JUMPDEST SWAP3 SWAP2 POP POP JUMP JUMPDEST PUSH0 PUSH0 PUSH0 PUSH1 0x60 DUP5 DUP7 SUB SLT ISZERO PUSH2 0x278 JUMPI PUSH2 0x277 PUSH2 0x203 JUMP JUMPDEST JUMPDEST PUSH0 PUSH2 0x285 DUP7 DUP3 DUP8 ADD PUSH2 0x24D JUMP JUMPDEST SWAP4 POP POP PUSH1 0x20 PUSH2 0x296 DUP7 DUP3 DUP8 ADD PUSH2 0x24D JUMP JUMPDEST SWAP3 POP POP PUSH1 0x40 PUSH2 0x2A7 DUP7 DUP3 DUP8 ADD PUSH2 0x24D JUMP JUMPDEST SWAP2 POP POP SWAP3 POP SWAP3 POP SWAP3 JUMP JUMPDEST PUSH2 0x2BA DUP2 PUSH2 0x226 JUMP JUMPDEST DUP3 MSTORE POP POP JUMP JUMPDEST PUSH0 PUSH1 0x20 DUP3 ADD SWAP1 POP PUSH2 0x2D3 PUSH0 DUP4 ADD DUP5 PUSH2 0x2B1 JUMP JUMPDEST SWAP3 SWAP2 POP POP JUMP JUMPDEST PUSH1 0x80 MLOAD PUSH2 0x1087 PUSH2 0x2FF PUSH0 CODECOPY PUSH0 DUP2 DUP2 PUSH2 0x6B1 ADD MSTORE DUP2 DUP2 PUSH2 0x7E7 ADD MSTORE PUSH2 0x822 ADD MSTORE PUSH2 0x1087 PUSH0 RETURN INVALID PUSH1 0x80 PUSH1 0x40 MSTORE CALLVALUE DUP1 ISZERO PUSH2 0xF JUMPI PUSH0 PUSH0 REVERT JUMPDEST POP PUSH1 0x4 CALLDATASIZE LT PUSH2 0xF3 JUMPI PUSH0 CALLDATALOAD PUSH1 0xE0 SHR DUP1 PUSH4 0x77DE3851 GT PUSH2 0x95 JUMPI DUP1 PUSH4 0xCE41607A GT PUSH2 0x64 JUMPI DUP1 PUSH4 0xCE41607A EQ PUSH2 0x22F JUMPI DUP1 PUSH4 0xECDA10F5 EQ PUSH2 0x24D JUMPI DUP1 PUSH4 0xF2FDE38B EQ PUSH2 0x26B JUMPI DUP1 PUSH4 0xF853630A EQ PUSH2 0x287 JUMPI PUSH2 0xF3 JUMP JUMPDEST DUP1 PUSH4 0x77DE3851 EQ PUSH2 0x1B7 JUMPI DUP1 PUSH4 0x83D89228 EQ PUSH2 0x1D5 JUMPI DUP1 PUSH4 0x8DA5CB5B EQ PUSH2 0x1F3 JUMPI DUP1 PUSH4 0xAF57676B EQ PUSH2 0x211 JUMPI PUSH2 0xF3 JUMP JUMPDEST DUP1 PUSH4 0x32F08873 GT PUSH2 0xD1 JUMPI DUP1 PUSH4 0x32F08873 EQ PUSH2 0x14F JUMPI DUP1 PUSH4 0x6EB227CE EQ PUSH2 0x171 JUMPI DUP1 PUSH4 0x715018A6 EQ PUSH2 0x18F JUMPI DUP1 PUSH4 0x76F5F700 EQ PUSH2 0x199 JUMPI PUSH2 0xF3 JUMP JUMPDEST DUP1 PUSH4 0xDC0BA72 EQ PUSH2 0xF7 JUMPI DUP1 PUSH4 0x1704A882 EQ PUSH2 0x115 JUMPI DUP1 PUSH4 0x2C9768C8 EQ PUSH2 0x133 JUMPI JUMPDEST PUSH0 PUSH0 REVERT JUMPDEST PUSH2 0xFF PUSH2 0x2B7 JUMP JUMPDEST PUSH1 0x40 MLOAD PUSH2 0x10C SWAP2 SWAP1 PUSH2 0xA4C JUMP JUMPDEST PUSH1 0x40 MLOAD DUP1 SWAP2 SUB SWAP1 RETURN JUMPDEST PUSH2 0x11D PUSH2 0x2BF JUMP JUMPDEST PUSH1 0x40 MLOAD PUSH2 0x12A SWAP2 SWAP1 PUSH2 0xADF JUMP JUMPDEST PUSH1 0x40 MLOAD DUP1 SWAP2 SUB SWAP1 RETURN JUMPDEST PUSH2 0x14D PUSH1 0x4 DUP1 CALLDATASIZE SUB DUP2 ADD SWAP1 PUSH2 0x148 SWAP2 SWAP1 PUSH2 0xB61 JUMP JUMPDEST PUSH2 0x2E4 JUMP JUMPDEST STOP JUMPDEST PUSH2 0x157 PUSH2 0x65B JUMP JUMPDEST PUSH1 0x40 MLOAD PUSH2 0x168 SWAP6 SWAP5 SWAP4 SWAP3 SWAP2 SWAP1 PUSH2 0xBC6 JUMP JUMPDEST PUSH1 0x40 MLOAD DUP1 SWAP2 SUB SWAP1 RETURN JUMPDEST PUSH2 0x179 PUSH2 0x6AA JUMP JUMPDEST PUSH1 0x40 MLOAD PUSH2 0x186 SWAP2 SWAP1 PUSH2 0xA4C JUMP JUMPDEST PUSH1 0x40 MLOAD DUP1 SWAP2 SUB SWAP1 RETURN JUMPDEST PUSH2 0x197 PUSH2 0x6EA JUMP JUMPDEST STOP JUMPDEST PUSH2 0x1A1 PUSH2 0x6FD JUMP JUMPDEST PUSH1 0x40 MLOAD PUSH2 0x1AE SWAP2 SWAP1 PUSH2 0xA4C JUMP JUMPDEST PUSH1 0x40 MLOAD DUP1 SWAP2 SUB SWAP1 RETURN JUMPDEST PUSH2 0x1BF PUSH2 0x704 JUMP JUMPDEST PUSH1 0x40 MLOAD PUSH2 0x1CC SWAP2 SWAP1 PUSH2 0xA4C JUMP JUMPDEST PUSH1 0x40 MLOAD DUP1 SWAP2 SUB SWAP1 RETURN JUMPDEST PUSH2 0x1DD PUSH2 0x78D JUMP JUMPDEST PUSH1 0x40 MLOAD PUSH2 0x1EA SWAP2 SWAP1 PUSH2 0xA4C JUMP JUMPDEST PUSH1 0x40 MLOAD DUP1 SWAP2 SUB SWAP1 RETURN JUMPDEST PUSH2 0x1FB PUSH2 0x793 JUMP JUMPDEST PUSH1 0x40 MLOAD PUSH2 0x208 SWAP2 SWAP1 PUSH2 0xC37 JUMP JUMPDEST PUSH1 0x40 MLOAD DUP1 SWAP2 SUB SWAP1 RETURN JUMPDEST PUSH2 0x219 PUSH2 0x7BA JUMP JUMPDEST PUSH1 0x40 MLOAD PUSH2 0x226 SWAP2 SWAP1 PUSH2 0xC70 JUMP JUMPDEST PUSH1 0x40 MLOAD DUP1 SWAP2 SUB SWAP1 RETURN JUMPDEST PUSH2 0x237 PUSH2 0x7DF JUMP JUMPDEST PUSH1 0x40 MLOAD PUSH2 0x244 SWAP2 SWAP1 PUSH2 0xA4C JUMP JUMPDEST PUSH1 0x40 MLOAD DUP1 SWAP2 SUB SWAP1 RETURN JUMPDEST PUSH2 0x255 PUSH2 0x820 JUMP JUMPDEST PUSH1 0x40 MLOAD PUSH2 0x262 SWAP2 SWAP1 PUSH2 0xA4C JUMP JUMPDEST PUSH1 0x40 MLOAD DUP1 SWAP2 SUB SWAP1 RETURN JUMPDEST PUSH2 0x285 PUSH1 0x4 DUP1 CALLDATASIZE SUB DUP2 ADD SWAP1 PUSH2 0x280 SWAP2 SWAP1 PUSH2 0xCB3 JUMP JUMPDEST PUSH2 0x844 JUMP JUMPDEST STOP JUMPDEST PUSH2 0x2A1 PUSH1 0x4 DUP1 CALLDATASIZE SUB DUP2 ADD SWAP1 PUSH2 0x29C SWAP2 SWAP1 PUSH2 0xD08 JUMP JUMPDEST PUSH2 0x8C8 JUMP JUMPDEST PUSH1 0x40 MLOAD PUSH2 0x2AE SWAP2 SWAP1 PUSH2 0xD33 JUMP JUMPDEST PUSH1 0x40 MLOAD DUP1 SWAP2 SUB SWAP1 RETURN JUMPDEST PUSH4 0x1E13380 DUP2 JUMP JUMPDEST PUSH1 0x1 PUSH0 SWAP1 SLOAD SWAP1 PUSH2 0x100 EXP SWAP1 DIV PUSH20 0xFFFFFFFFFFFFFFFFFFFFFFFFFFFFFFFFFFFFFFFF AND DUP2 JUMP JUMPDEST PUSH2 0x2EC PUSH2 0x8E5 JUMP JUMPDEST PUSH0 PUSH2 0x2F5 PUSH2 0x6AA JUMP JUMPDEST SWAP1 POP PUSH1 0x3 PUSH0 DUP3 DUP2 MSTORE PUSH1 0x20 ADD SWAP1 DUP2 MSTORE PUSH1 0x20 ADD PUSH0 KECCAK256 PUSH0 SWAP1 SLOAD SWAP1 PUSH2 0x100 EXP SWAP1 DIV PUSH1 0xFF AND ISZERO PUSH2 0x355 JUMPI PUSH1 0x40 MLOAD PUSH32 0x8C379A000000000000000000000000000000000000000000000000000000000 DUP2 MSTORE PUSH1 0x4 ADD PUSH2 0x34C SWAP1 PUSH2 0xDCC JUMP JUMPDEST PUSH1 0x40 MLOAD DUP1 SWAP2 SUB SWAP1 REVERT JUMPDEST PUSH0 PUSH2 0x35E PUSH2 0x704 JUMP JUMPDEST SWAP1 POP PUSH0 PUSH1 0x1 PUSH0 SWAP1 SLOAD SWAP1 PUSH2 0x100 EXP SWAP1 DIV PUSH20 0xFFFFFFFFFFFFFFFFFFFFFFFFFFFFFFFFFFFFFFFF AND PUSH20 0xFFFFFFFFFFFFFFFFFFFFFFFFFFFFFFFFFFFFFFFF AND PUSH4 0x18160DDD PUSH1 0x40 MLOAD DUP2 PUSH4 0xFFFFFFFF AND PUSH1 0xE0 SHL DUP2 MSTORE PUSH1 0x4 ADD PUSH1 0x20 PUSH1 0x40 MLOAD DUP1 DUP4 SUB DUP2 DUP7 GAS STATICCALL ISZERO DUP1 ISZERO PUSH2 0x3CB JUMPI RETURNDATASIZE PUSH0 PUSH0 RETURNDATACOPY RETURNDATASIZE PUSH0 REVERT JUMPDEST POP POP POP POP PUSH1 0x40 MLOAD RETURNDATASIZE PUSH1 0x1F NOT PUSH1 0x1F DUP3 ADD AND DUP3 ADD DUP1 PUSH1 0x40 MSTORE POP DUP2 ADD SWAP1 PUSH2 0x3EF SWAP2 SWAP1 PUSH2 0xDFE JUMP JUMPDEST SWAP1 POP PUSH0 DUP2 GT PUSH2 0x433 JUMPI PUSH1 0x40 MLOAD PUSH32 0x8C379A000000000000000000000000000000000000000000000000000000000 DUP2 MSTORE PUSH1 0x4 ADD PUSH2 0x42A SWAP1 PUSH2 0xE73 JUMP JUMPDEST PUSH1 0x40 MLOAD DUP1 SWAP2 SUB SWAP1 REVERT JUMPDEST PUSH0 PUSH0 SWAP1 POP PUSH0 PUSH0 SWAP1 POP JUMPDEST DUP7 DUP7 SWAP1 POP DUP2 LT ISZERO PUSH2 0x5D8 JUMPI PUSH0 DUP8 DUP8 DUP4 DUP2 DUP2 LT PUSH2 0x45B JUMPI PUSH2 0x45A PUSH2 0xE91 JUMP JUMPDEST JUMPDEST SWAP1 POP PUSH1 0x20 MUL ADD PUSH1 0x20 DUP2 ADD SWAP1 PUSH2 0x470 SWAP2 SWAP1 PUSH2 0xCB3 JUMP JUMPDEST SWAP1 POP PUSH0 PUSH1 0x1 PUSH0 SWAP1 SLOAD SWAP1 PUSH2 0x100 EXP SWAP1 DIV PUSH20 0xFFFFFFFFFFFFFFFFFFFFFFFFFFFFFFFFFFFFFFFF AND PUSH20 0xFFFFFFFFFFFFFFFFFFFFFFFFFFFFFFFFFFFFFFFF AND PUSH4 0x70A08231 DUP4 PUSH1 0x40 MLOAD DUP3 PUSH4 0xFFFFFFFF AND PUSH1 0xE0 SHL DUP2 MSTORE PUSH1 0x4 ADD PUSH2 0x4CD SWAP2 SWAP1 PUSH2 0xC37 JUMP JUMPDEST PUSH1 0x20 PUSH1 0x40 MLOAD DUP1 DUP4 SUB DUP2 DUP7 GAS STATICCALL ISZERO DUP1 ISZERO PUSH2 0x4E8 JUMPI RETURNDATASIZE PUSH0 PUSH0 RETURNDATACOPY RETURNDATASIZE PUSH0 REVERT JUMPDEST POP POP POP POP PUSH1 0x40 MLOAD RETURNDATASIZE PUSH1 0x1F NOT PUSH1 0x1F DUP3 ADD AND DUP3 ADD DUP1 PUSH1 0x40 MSTORE POP DUP2 ADD SWAP1 PUSH2 0x50C SWAP2 SWAP1 PUSH2 0xDFE JUMP JUMPDEST SWAP1 POP PUSH0 DUP2 GT ISZERO PUSH2 0x5C9 JUMPI PUSH0 DUP6 DUP8 DUP4 PUSH2 0x524 SWAP2 SWAP1 PUSH2 0xEEB JUMP JUMPDEST PUSH2 0x52E SWAP2 SWAP1 PUSH2 0xF59 JUMP JUMPDEST SWAP1 POP PUSH1 0x2 PUSH0 SWAP1 SLOAD SWAP1 PUSH2 0x100 EXP SWAP1 DIV PUSH20 0xFFFFFFFFFFFFFFFFFFFFFFFFFFFFFFFFFFFFFFFF AND PUSH20 0xFFFFFFFFFFFFFFFFFFFFFFFFFFFFFFFFFFFFFFFF AND PUSH4 0x40C10F19 DUP5 DUP4 PUSH1 0x40 MLOAD DUP4 PUSH4 0xFFFFFFFF AND PUSH1 0xE0 SHL DUP2 MSTORE PUSH1 0x4 ADD PUSH2 0x58C SWAP3 SWAP2 SWAP1 PUSH2 0xF89 JUMP JUMPDEST PUSH0 PUSH1 0x40 MLOAD DUP1 DUP4 SUB DUP2 PUSH0 DUP8 DUP1 EXTCODESIZE ISZERO DUP1 ISZERO PUSH2 0x5A3 JUMPI PUSH0 PUSH0 REVERT JUMPDEST POP GAS CALL ISZERO DUP1 ISZERO PUSH2 0x5B5 JUMPI RETURNDATASIZE PUSH0 PUSH0 RETURNDATACOPY RETURNDATASIZE PUSH0 REVERT JUMPDEST POP POP POP POP DUP5 DUP1 PUSH2 0x5C4 SWAP1 PUSH2 0xFB0 JUMP JUMPDEST SWAP6 POP POP POP JUMPDEST POP POP DUP1 DUP1 PUSH1 0x1 ADD SWAP2 POP POP PUSH2 0x43C JUMP JUMPDEST POP PUSH1 0x1 PUSH1 0x3 PUSH0 DUP7 DUP2 MSTORE PUSH1 0x20 ADD SWAP1 DUP2 MSTORE PUSH1 0x20 ADD PUSH0 KECCAK256 PUSH0 PUSH2 0x100 EXP DUP2 SLOAD DUP2 PUSH1 0xFF MUL NOT AND SWAP1 DUP4 ISZERO ISZERO MUL OR SWAP1 SSTORE POP PUSH1 0x4 PUSH0 DUP2 SLOAD DUP1 SWAP3 SWAP2 SWAP1 PUSH2 0x614 SWAP1 PUSH2 0xFB0 JUMP JUMPDEST SWAP2 SWAP1 POP SSTORE POP DUP4 PUSH32 0x26F116315511836BAAEEEC2C9F0D3C114715E197D820ABF9CBDD99A9619134F5 DUP5 DUP4 PUSH1 0x40 MLOAD PUSH2 0x64B SWAP3 SWAP2 SWAP1 PUSH2 0xFF7 JUMP JUMPDEST PUSH1 0x40 MLOAD DUP1 SWAP2 SUB SWAP1 LOG2 POP POP POP POP POP POP JUMP JUMPDEST PUSH0 PUSH0 PUSH0 PUSH0 PUSH0 PUSH2 0x668 PUSH2 0x6AA JUMP JUMPDEST SWAP5 POP PUSH2 0x672 PUSH2 0x7DF JUMP JUMPDEST SWAP4 POP PUSH2 0x67C PUSH2 0x704 JUMP JUMPDEST SWAP3 POP PUSH1 0x3 PUSH0 DUP7 DUP2 MSTORE PUSH1 0x20 ADD SWAP1 DUP2 MSTORE PUSH1 0x20 ADD PUSH0 KECCAK256 PUSH0 SWAP1 SLOAD SWAP1 PUSH2 0x100 EXP SWAP1 DIV PUSH1 0xFF AND SWAP2 POP PUSH1 0x4 SLOAD SWAP1 POP SWAP1 SWAP2 SWAP3 SWAP4 SWAP5 JUMP JUMPDEST PUSH0 PUSH3 0x93A80 PUSH32 0x0 TIMESTAMP PUSH2 0x6DB SWAP2 SWAP1 PUSH2 0x101E JUMP JUMPDEST PUSH2 0x6E5 SWAP2 SWAP1 PUSH2 0xF59 JUMP JUMPDEST SWAP1 POP SWAP1 JUMP JUMPDEST PUSH2 0x6F2 PUSH2 0x8E5 JUMP JUMPDEST PUSH2 0x6FB PUSH0 PUSH2 0x96C JUMP JUMPDEST JUMP JUMPDEST PUSH3 0x93A80 DUP2 JUMP JUMPDEST PUSH0 PUSH0 PUSH2 0x70E PUSH2 0x7DF JUMP JUMPDEST SWAP1 POP PUSH0 DUP2 SUB PUSH2 0x72A JUMPI PUSH10 0xD3C21BCECCEDA1000000 SWAP2 POP POP PUSH2 0x78A JUMP JUMPDEST PUSH1 0x1 DUP2 SUB PUSH2 0x745 JUMPI PUSH10 0x9ED194DB19B238C00000 SWAP2 POP POP PUSH2 0x78A JUMP JUMPDEST PUSH1 0x2 DUP2 SUB PUSH2 0x760 JUMPI PUSH10 0x69E10DE76676D0800000 SWAP2 POP POP PUSH2 0x78A JUMP JUMPDEST PUSH1 0x3 DUP2 SUB PUSH2 0x77B JUMPI PUSH10 0x34F086F3B33B68400000 SWAP2 POP POP PUSH2 0x78A JUMP JUMPDEST PUSH10 0x152D02C7E14AF6800000 SWAP2 POP POP JUMPDEST SWAP1 JUMP JUMPDEST PUSH1 0x4 SLOAD DUP2 JUMP JUMPDEST PUSH0 PUSH0 PUSH0 SWAP1 SLOAD SWAP1 PUSH2 0x100 EXP SWAP1 DIV PUSH20 0xFFFFFFFFFFFFFFFFFFFFFFFFFFFFFFFFFFFFFFFF AND SWAP1 POP SWAP1 JUMP JUMPDEST PUSH1 0x2 PUSH0 SWAP1 SLOAD SWAP1 PUSH2 0x100 EXP SWAP1 DIV PUSH20 0xFFFFFFFFFFFFFFFFFFFFFFFFFFFFFFFFFFFFFFFF AND DUP2 JUMP JUMPDEST PUSH0 PUSH4 0x1E13380 PUSH32 0x0 TIMESTAMP PUSH2 0x811 SWAP2 SWAP1 PUSH2 0x101E JUMP JUMPDEST PUSH2 0x81B SWAP2 SWAP1 PUSH2 0xF59 JUMP JUMPDEST SWAP1 POP SWAP1 JUMP JUMPDEST PUSH32 0x0 DUP2 JUMP JUMPDEST PUSH2 0x84C PUSH2 0x8E5 JUMP JUMPDEST PUSH0 PUSH20 0xFFFFFFFFFFFFFFFFFFFFFFFFFFFFFFFFFFFFFFFF AND DUP2 PUSH20 0xFFFFFFFFFFFFFFFFFFFFFFFFFFFFFFFFFFFFFFFF AND SUB PUSH2 0x8BC JUMPI PUSH0 PUSH1 0x40 MLOAD PUSH32 0x1E4FBDF700000000000000000000000000000000000000000000000000000000 DUP2 MSTORE PUSH1 0x4 ADD PUSH2 0x8B3 SWAP2 SWAP1 PUSH2 0xC37 JUMP JUMPDEST PUSH1 0x40 MLOAD DUP1 SWAP2 SUB SWAP1 REVERT JUMPDEST PUSH2 0x8C5 DUP2 PUSH2 0x96C JUMP JUMPDEST POP JUMP JUMPDEST PUSH1 0x3 PUSH1 0x20 MSTORE DUP1 PUSH0 MSTORE PUSH1 0x40 PUSH0 KECCAK256 PUSH0 SWAP2 POP SLOAD SWAP1 PUSH2 0x100 EXP SWAP1 DIV PUSH1 0xFF AND DUP2 JUMP JUMPDEST PUSH2 0x8ED PUSH2 0xA2D JUMP JUMPDEST PUSH20 0xFFFFFFFFFFFFFFFFFFFFFFFFFFFFFFFFFFFFFFFF AND PUSH2 0x90B PUSH2 0x793 JUMP JUMPDEST PUSH20 0xFFFFFFFFFFFFFFFFFFFFFFFFFFFFFFFFFFFFFFFF AND EQ PUSH2 0x96A JUMPI PUSH2 0x92E PUSH2 0xA2D JUMP JUMPDEST PUSH1 0x40 MLOAD PUSH32 0x118CDAA700000000000000000000000000000000000000000000000000000000 DUP2 MSTORE PUSH1 0x4 ADD PUSH2 0x961 SWAP2 SWAP1 PUSH2 0xC37 JUMP JUMPDEST PUSH1 0x40 MLOAD DUP1 SWAP2 SUB SWAP1 REVERT JUMPDEST JUMP JUMPDEST PUSH0 PUSH0 PUSH0 SWAP1 SLOAD SWAP1 PUSH2 0x100 EXP SWAP1 DIV PUSH20 0xFFFFFFFFFFFFFFFFFFFFFFFFFFFFFFFFFFFFFFFF AND SWAP1 POP DUP2 PUSH0 PUSH0 PUSH2 0x100 EXP DUP2 SLOAD DUP2 PUSH20 0xFFFFFFFFFFFFFFFFFFFFFFFFFFFFFFFFFFFFFFFF MUL NOT AND SWAP1 DUP4 PUSH20 0xFFFFFFFFFFFFFFFFFFFFFFFFFFFFFFFFFFFFFFFF AND MUL OR SWAP1 SSTORE POP DUP2 PUSH20 0xFFFFFFFFFFFFFFFFFFFFFFFFFFFFFFFFFFFFFFFF AND DUP2 PUSH20 0xFFFFFFFFFFFFFFFFFFFFFFFFFFFFFFFFFFFFFFFF AND PUSH32 0x8BE0079C531659141344CD1FD0A4F28419497F9722A3DAAFE3B4186F6B6457E0 PUSH1 0x40 MLOAD PUSH1 0x40 MLOAD DUP1 SWAP2 SUB SWAP1 LOG3 POP POP JUMP JUMPDEST PUSH0 CALLER SWAP1 POP SWAP1 JUMP JUMPDEST PUSH0 DUP2 SWAP1 POP SWAP2 SWAP1 POP JUMP JUMPDEST PUSH2 0xA46 DUP2 PUSH2 0xA34 JUMP JUMPDEST DUP3 MSTORE POP POP JUMP JUMPDEST PUSH0 PUSH1 0x20 DUP3 ADD SWAP1 POP PUSH2 0xA5F PUSH0 DUP4 ADD DUP5 PUSH2 0xA3D JUMP JUMPDEST SWAP3 SWAP2 POP POP JUMP JUMPDEST PUSH0 PUSH20 0xFFFFFFFFFFFFFFFFFFFFFFFFFFFFFFFFFFFFFFFF DUP3 AND SWAP1 POP SWAP2 SWAP1 POP JUMP JUMPDEST PUSH0 DUP2 SWAP1 POP SWAP2 SWAP1 POP JUMP JUMPDEST PUSH0 PUSH2 0xAA7 PUSH2 0xAA2 PUSH2 0xA9D DUP5 PUSH2 0xA65 JUMP JUMPDEST PUSH2 0xA84 JUMP JUMPDEST PUSH2 0xA65 JUMP JUMPDEST SWAP1 POP SWAP2 SWAP1 POP JUMP JUMPDEST PUSH0 PUSH2 0xAB8 DUP3 PUSH2 0xA8D JUMP JUMPDEST SWAP1 POP SWAP2 SWAP1 POP JUMP JUMPDEST PUSH0 PUSH2 0xAC9 DUP3 PUSH2 0xAAE JUMP JUMPDEST SWAP1 POP SWAP2 SWAP1 POP JUMP JUMPDEST PUSH2 0xAD9 DUP2 PUSH2 0xABF JUMP JUMPDEST DUP3 MSTORE POP POP JUMP JUMPDEST PUSH0 PUSH1 0x20 DUP3 ADD SWAP1 POP PUSH2 0xAF2 PUSH0 DUP4 ADD DUP5 PUSH2 0xAD0 JUMP JUMPDEST SWAP3 SWAP2 POP POP JUMP JUMPDEST PUSH0 PUSH0 REVERT JUMPDEST PUSH0 PUSH0 REVERT JUMPDEST PUSH0 PUSH0 REVERT JUMPDEST PUSH0 PUSH0 REVERT JUMPDEST PUSH0 PUSH0 REVERT JUMPDEST PUSH0 PUSH0 DUP4 PUSH1 0x1F DUP5 ADD SLT PUSH2 0xB21 JUMPI PUSH2 0xB20 PUSH2 0xB00 JUMP JUMPDEST JUMPDEST DUP3 CALLDATALOAD SWAP1 POP PUSH8 0xFFFFFFFFFFFFFFFF DUP2 GT ISZERO PUSH2 0xB3E JUMPI PUSH2 0xB3D PUSH2 0xB04 JUMP JUMPDEST JUMPDEST PUSH1 0x20 DUP4 ADD SWAP2 POP DUP4 PUSH1 0x20 DUP3 MUL DUP4 ADD GT ISZERO PUSH2 0xB5A JUMPI PUSH2 0xB59 PUSH2 0xB08 JUMP JUMPDEST JUMPDEST SWAP3 POP SWAP3 SWAP1 POP JUMP JUMPDEST PUSH0 PUSH0 PUSH1 0x20 DUP4 DUP6 SUB SLT ISZERO PUSH2 0xB77 JUMPI PUSH2 0xB76 PUSH2 0xAF8 JUMP JUMPDEST JUMPDEST PUSH0 DUP4 ADD CALLDATALOAD PUSH8 0xFFFFFFFFFFFFFFFF DUP2 GT ISZERO PUSH2 0xB94 JUMPI PUSH2 0xB93 PUSH2 0xAFC JUMP JUMPDEST JUMPDEST PUSH2 0xBA0 DUP6 DUP3 DUP7 ADD PUSH2 0xB0C JUMP JUMPDEST SWAP3 POP SWAP3 POP POP SWAP3 POP SWAP3 SWAP1 POP JUMP JUMPDEST PUSH0 DUP2 ISZERO ISZERO SWAP1 POP SWAP2 SWAP1 POP JUMP JUMPDEST PUSH2 0xBC0 DUP2 PUSH2 0xBAC JUMP JUMPDEST DUP3 MSTORE POP POP JUMP JUMPDEST PUSH0 PUSH1 0xA0 DUP3 ADD SWAP1 POP PUSH2 0xBD9 PUSH0 DUP4 ADD DUP9 PUSH2 0xA3D JUMP JUMPDEST PUSH2 0xBE6 PUSH1 0x20 DUP4 ADD DUP8 PUSH2 0xA3D JUMP JUMPDEST PUSH2 0xBF3 PUSH1 0x40 DUP4 ADD DUP7 PUSH2 0xA3D JUMP JUMPDEST PUSH2 0xC00 PUSH1 0x60 DUP4 ADD DUP6 PUSH2 0xBB7 JUMP JUMPDEST PUSH2 0xC0D PUSH1 0x80 DUP4 ADD DUP5 PUSH2 0xA3D JUMP JUMPDEST SWAP7 SWAP6 POP POP POP POP POP POP JUMP JUMPDEST PUSH0 PUSH2 0xC21 DUP3 PUSH2 0xA65 JUMP JUMPDEST SWAP1 POP SWAP2 SWAP1 POP JUMP JUMPDEST PUSH2 0xC31 DUP2 PUSH2 0xC17 JUMP JUMPDEST DUP3 MSTORE POP POP JUMP JUMPDEST PUSH0 PUSH1 0x20 DUP3 ADD SWAP1 POP PUSH2 0xC4A PUSH0 DUP4 ADD DUP5 PUSH2 0xC28 JUMP JUMPDEST SWAP3 SWAP2 POP POP JUMP JUMPDEST PUSH0 PUSH2 0xC5A DUP3 PUSH2 0xAAE JUMP JUMPDEST SWAP1 POP SWAP2 SWAP1 POP JUMP JUMPDEST PUSH2 0xC6A DUP2 PUSH2 0xC50 JUMP JUMPDEST DUP3 MSTORE POP POP JUMP JUMPDEST PUSH0 PUSH1 0x20 DUP3 ADD SWAP1 POP PUSH2 0xC83 PUSH0 DUP4 ADD DUP5 PUSH2 0xC61 JUMP JUMPDEST SWAP3 SWAP2 POP POP JUMP JUMPDEST PUSH2 0xC92 DUP2 PUSH2 0xC17 JUMP JUMPDEST DUP2 EQ PUSH2 0xC9C JUMPI PUSH0 PUSH0 REVERT JUMPDEST POP JUMP JUMPDEST PUSH0 DUP2 CALLDATALOAD SWAP1 POP PUSH2 0xCAD DUP2 PUSH2 0xC89 JUMP JUMPDEST SWAP3 SWAP2 POP POP JUMP JUMPDEST PUSH0 PUSH1 0x20 DUP3 DUP5 SUB SLT ISZERO PUSH2 0xCC8 JUMPI PUSH2 0xCC7 PUSH2 0xAF8 JUMP JUMPDEST JUMPDEST PUSH0 PUSH2 0xCD5 DUP5 DUP3 DUP6 ADD PUSH2 0xC9F JUMP JUMPDEST SWAP2 POP POP SWAP3 SWAP2 POP POP JUMP JUMPDEST PUSH2 0xCE7 DUP2 PUSH2 0xA34 JUMP JUMPDEST DUP2 EQ PUSH2 0xCF1 JUMPI PUSH0 PUSH0 REVERT JUMPDEST POP JUMP JUMPDEST PUSH0 DUP2 CALLDATALOAD SWAP1 POP PUSH2 0xD02 DUP2 PUSH2 0xCDE JUMP JUMPDEST SWAP3 SWAP2 POP POP JUMP JUMPDEST PUSH0 PUSH1 0x20 DUP3 DUP5 SUB SLT ISZERO PUSH2 0xD1D JUMPI PUSH2 0xD1C PUSH2 0xAF8 JUMP JUMPDEST JUMPDEST PUSH0 PUSH2 0xD2A DUP5 DUP3 DUP6 ADD PUSH2 0xCF4 JUMP JUMPDEST SWAP2 POP POP SWAP3 SWAP2 POP POP JUMP JUMPDEST PUSH0 PUSH1 0x20 DUP3 ADD SWAP1 POP PUSH2 0xD46 PUSH0 DUP4 ADD DUP5 PUSH2 0xBB7 JUMP JUMPDEST SWAP3 SWAP2 POP POP JUMP JUMPDEST PUSH0 DUP3 DUP3 MSTORE PUSH1 0x20 DUP3 ADD SWAP1 POP SWAP3 SWAP2 POP POP JUMP JUMPDEST PUSH32 0x41697264726F7020616C72656164792065786563757465642074686973207765 PUSH0 DUP3 ADD MSTORE PUSH32 0x656B000000000000000000000000000000000000000000000000000000000000 PUSH1 0x20 DUP3 ADD MSTORE POP JUMP JUMPDEST PUSH0 PUSH2 0xDB6 PUSH1 0x22 DUP4 PUSH2 0xD4C JUMP JUMPDEST SWAP2 POP PUSH2 0xDC1 DUP3 PUSH2 0xD5C JUMP JUMPDEST PUSH1 0x40 DUP3 ADD SWAP1 POP SWAP2 SWAP1 POP JUMP JUMPDEST PUSH0 PUSH1 0x20 DUP3 ADD SWAP1 POP DUP2 DUP2 SUB PUSH0 DUP4 ADD MSTORE PUSH2 0xDE3 DUP2 PUSH2 0xDAA JUMP JUMPDEST SWAP1 POP SWAP2 SWAP1 POP JUMP JUMPDEST PUSH0 DUP2 MLOAD SWAP1 POP PUSH2 0xDF8 DUP2 PUSH2 0xCDE JUMP JUMPDEST SWAP3 SWAP2 POP POP JUMP JUMPDEST PUSH0 PUSH1 0x20 DUP3 DUP5 SUB SLT ISZERO PUSH2 0xE13 JUMPI PUSH2 0xE12 PUSH2 0xAF8 JUMP JUMPDEST JUMPDEST PUSH0 PUSH2 0xE20 DUP5 DUP3 DUP6 ADD PUSH2 0xDEA JUMP JUMPDEST SWAP2 POP POP SWAP3 SWAP2 POP POP JUMP JUMPDEST PUSH32 0x4E6F204E435420746F6B656E7320657869737400000000000000000000000000 PUSH0 DUP3 ADD MSTORE POP JUMP JUMPDEST PUSH0 PUSH2 0xE5D PUSH1 0x13 DUP4 PUSH2 0xD4C JUMP JUMPDEST SWAP2 POP PUSH2 0xE68 DUP3 PUSH2 0xE29 JUMP JUMPDEST PUSH1 0x20 DUP3 ADD SWAP1 POP SWAP2 SWAP1 POP JUMP JUMPDEST PUSH0 PUSH1 0x20 DUP3 ADD SWAP1 POP DUP2 DUP2 SUB PUSH0 DUP4 ADD MSTORE PUSH2 0xE8A DUP2 PUSH2 0xE51 JUMP JUMPDEST SWAP1 POP SWAP2 SWAP1 POP JUMP JUMPDEST PUSH32 0x4E487B7100000000000000000000000000000000000000000000000000000000 PUSH0 MSTORE PUSH1 0x32 PUSH1 0x4 MSTORE PUSH1 0x24 PUSH0 REVERT JUMPDEST PUSH32 0x4E487B7100000000000000000000000000000000000000000000000000000000 PUSH0 MSTORE PUSH1 0x11 PUSH1 0x4 MSTORE PUSH1 0x24 PUSH0 REVERT JUMPDEST PUSH0 PUSH2 0xEF5 DUP3 PUSH2 0xA34 JUMP JUMPDEST SWAP2 POP PUSH2 0xF00 DUP4 PUSH2 0xA34 JUMP JUMPDEST SWAP3 POP DUP3 DUP3 MUL PUSH2 0xF0E DUP2 PUSH2 0xA34 JUMP JUMPDEST SWAP2 POP DUP3 DUP3 DIV DUP5 EQ DUP4 ISZERO OR PUSH2 0xF25 JUMPI PUSH2 0xF24 PUSH2 0xEBE JUMP JUMPDEST JUMPDEST POP SWAP3 SWAP2 POP POP JUMP JUMPDEST PUSH32 0x4E487B7100000000000000000000000000000000000000000000000000000000 PUSH0 MSTORE PUSH1 0x12 PUSH1 0x4 MSTORE PUSH1 0x24 PUSH0 REVERT JUMPDEST PUSH0 PUSH2 0xF63 DUP3 PUSH2 0xA34 JUMP JUMPDEST SWAP2 POP PUSH2 0xF6E DUP4 PUSH2 0xA34 JUMP JUMPDEST SWAP3 POP DUP3 PUSH2 0xF7E JUMPI PUSH2 0xF7D PUSH2 0xF2C JUMP JUMPDEST JUMPDEST DUP3 DUP3 DIV SWAP1 POP SWAP3 SWAP2 POP POP JUMP JUMPDEST PUSH0 PUSH1 0x40 DUP3 ADD SWAP1 POP PUSH2 0xF9C PUSH0 DUP4 ADD DUP6 PUSH2 0xC28 JUMP JUMPDEST PUSH2 0xFA9 PUSH1 0x20 DUP4 ADD DUP5 PUSH2 0xA3D JUMP JUMPDEST SWAP4 SWAP3 POP POP POP JUMP JUMPDEST PUSH0 PUSH2 0xFBA DUP3 PUSH2 0xA34 JUMP JUMPDEST SWAP2 POP PUSH32 0xFFFFFFFFFFFFFFFFFFFFFFFFFFFFFFFFFFFFFFFFFFFFFFFFFFFFFFFFFFFFFFFF DUP3 SUB PUSH2 0xFEC JUMPI PUSH2 0xFEB PUSH2 0xEBE JUMP JUMPDEST JUMPDEST PUSH1 0x1 DUP3 ADD SWAP1 POP SWAP2 SWAP1 POP JUMP JUMPDEST PUSH0 PUSH1 0x40 DUP3 ADD SWAP1 POP PUSH2 0x100A PUSH0 DUP4 ADD DUP6 PUSH2 0xA3D JUMP JUMPDEST PUSH2 0x1017 PUSH1 0x20 DUP4 ADD DUP5 PUSH2 0xA3D JUMP JUMPDEST SWAP4 SWAP3 POP POP POP JUMP JUMPDEST PUSH0 PUSH2 0x1028 DUP3 PUSH2 0xA34 JUMP JUMPDEST SWAP2 POP PUSH2 0x1033 DUP4 PUSH2 0xA34 JUMP JUMPDEST SWAP3 POP DUP3 DUP3 SUB SWAP1 POP DUP2 DUP2 GT ISZERO PUSH2 0x104B JUMPI PUSH2 0x104A PUSH2 0xEBE JUMP JUMPDEST JUMPDEST SWAP3 SWAP2 POP POP JUMP INVALID LOG2 PUSH5 0x6970667358 0x22 SLT KECCAK256 0xDD 0xEE 0xCA AND 0xDA LOG1 0x22 PUSH19 0xC3B08A89A5056EE18B980D67719D7812B74D94 0x1E LOG1 0xBF 0xAD 0x1F PUSH5 0x736F6C6343 STOP ADDMOD SHR STOP CALLER "},"methodIdentifiers":{"WEEK_DURATION()":"76f5f700","YEAR_DURATION()":"0dc0ba72","deploymentTime()":"ecda10f5","executeWeeklyAirdrop(address[])":"2c9768c8","getAirdropInfo()":"32f08873","getCurrentWeek()":"6eb227ce","getCurrentYear()":"ce41607a","getWeeklyRewardAmount()":"77de3851","nocenite()":"1704a882","nocenix()":"af57676b","owner()":"8da5cb5b","renounceOwnership()":"715018a6","totalAirdropsExecuted()":"83d89228","transferOwnership(address)":"f2fde38b","weeklyAirdropExecuted(uint256)":"f853630a"}}}}}