{
  "_format": "hh3-artifact-1",
  "contractName": "Airdrop",
  "sourceName": "contracts/Airdrop.sol",
  "abi": [
    {
      "inputs": [
        {
          "internalType": "address",
          "name": "_nocenite",
          "type": "address"
        },
        {
          "internalType": "address",
          "name": "_nocenix",
          "type": "address"
        },
        {
          "internalType": "address",
          "name": "initialOwner",
          "type": "address"
        }
      ],
      "stateMutability": "nonpayable",
      "type": "constructor"
    },
    {
      "inputs": [
        {
          "internalType": "address",
          "name": "owner",
          "type": "address"
        }
      ],
      "name": "OwnableInvalidOwner",
      "type": "error"
    },
    {
      "inputs": [
        {
          "internalType": "address",
          "name": "account",
          "type": "address"
        }
      ],
      "name": "OwnableUnauthorizedAccount",
      "type": "error"
    },
    {
      "anonymous": false,
      "inputs": [
        {
          "indexed": true,
          "internalType": "uint256",
          "name": "weekNumber",
          "type": "uint256"
        },
        {
          "indexed": false,
          "internalType": "uint256",
          "name": "totalAmount",
          "type": "uint256"
        },
        {
          "indexed": false,
          "internalType": "uint256",
          "name": "recipientCount",
          "type": "uint256"
        },
        {
          "indexed": false,
          "internalType": "address",
          "name": "executor",
          "type": "address"
        },
        {
          "indexed": false,
          "internalType": "uint256",
          "name": "executorReward",
          "type": "uint256"
        }
      ],
      "name": "AirdropExecuted",
      "type": "event"
    },
    {
      "anonymous": false,
      "inputs": [
        {
          "indexed": true,
          "internalType": "address",
          "name": "previousOwner",
          "type": "address"
        },
        {
          "indexed": true,
          "internalType": "address",
          "name": "newOwner",
          "type": "address"
        }
      ],
      "name": "OwnershipTransferred",
      "type": "event"
    },
    {
      "inputs": [],
      "name": "EXECUTOR_REWARD_PERCENTAGE",
      "outputs": [
        {
          "internalType": "uint256",
          "name": "",
          "type": "uint256"
        }
      ],
      "stateMutability": "view",
      "type": "function"
    },
    {
      "inputs": [],
      "name": "WEEK_DURATION",
      "outputs": [
        {
          "internalType": "uint256",
          "name": "",
          "type": "uint256"
        }
      ],
      "stateMutability": "view",
      "type": "function"
    },
    {
      "inputs": [],
      "name": "YEAR_DURATION",
      "outputs": [
        {
          "internalType": "uint256",
          "name": "",
          "type": "uint256"
        }
      ],
      "stateMutability": "view",
      "type": "function"
    },
    {
      "inputs": [],
      "name": "deploymentTime",
      "outputs": [
        {
          "internalType": "uint256",
          "name": "",
          "type": "uint256"
        }
      ],
      "stateMutability": "view",
      "type": "function"
    },
    {
      "inputs": [
        {
          "internalType": "address[]",
          "name": "recipients",
          "type": "address[]"
        }
      ],
      "name": "executeWeeklyAirdrop",
      "outputs": [],
      "stateMutability": "nonpayable",
      "type": "function"
    },
    {
      "inputs": [],
      "name": "getAirdropInfo",
      "outputs": [
        {
          "internalType": "uint256",
          "name": "currentWeek",
          "type": "uint256"
        },
        {
          "internalType": "uint256",
          "name": "currentYear",
          "type": "uint256"
        },
        {
          "internalType": "uint256",
          "name": "weeklyReward",
          "type": "uint256"
        },
        {
          "internalType": "bool",
          "name": "weekExecuted",
          "type": "bool"
        },
        {
          "internalType": "uint256",
          "name": "totalExecuted",
          "type": "uint256"
        }
      ],
      "stateMutability": "view",
      "type": "function"
    },
    {
      "inputs": [],
      "name": "getCurrentWeek",
      "outputs": [
        {
          "internalType": "uint256",
          "name": "",
          "type": "uint256"
        }
      ],
      "stateMutability": "view",
      "type": "function"
    },
    {
      "inputs": [],
      "name": "getCurrentYear",
      "outputs": [
        {
          "internalType": "uint256",
          "name": "",
          "type": "uint256"
        }
      ],
      "stateMutability": "view",
      "type": "function"
    },
    {
      "inputs": [],
      "name": "getExecutorReward",
      "outputs": [
        {
          "internalType": "uint256",
          "name": "",
          "type": "uint256"
        }
      ],
      "stateMutability": "view",
      "type": "function"
    },
    {
      "inputs": [],
      "name": "getWeeklyRewardAmount",
      "outputs": [
        {
          "internalType": "uint256",
          "name": "",
          "type": "uint256"
        }
      ],
      "stateMutability": "view",
      "type": "function"
    },
    {
      "inputs": [],
      "name": "nocenite",
      "outputs": [
        {
          "internalType": "contract Nocenite",
          "name": "",
          "type": "address"
        }
      ],
      "stateMutability": "view",
      "type": "function"
    },
    {
      "inputs": [],
      "name": "nocenix",
      "outputs": [
        {
          "internalType": "contract Nocenix",
          "name": "",
          "type": "address"
        }
      ],
      "stateMutability": "view",
      "type": "function"
    },
    {
      "inputs": [],
      "name": "owner",
      "outputs": [
        {
          "internalType": "address",
          "name": "",
          "type": "address"
        }
      ],
      "stateMutability": "view",
      "type": "function"
    },
    {
      "inputs": [],
      "name": "renounceOwnership",
      "outputs": [],
      "stateMutability": "nonpayable",
      "type": "function"
    },
    {
      "inputs": [],
      "name": "totalAirdropsExecuted",
      "outputs": [
        {
          "internalType": "uint256",
          "name": "",
          "type": "uint256"
        }
      ],
      "stateMutability": "view",
      "type": "function"
    },
    {
      "inputs": [
        {
          "internalType": "address",
          "name": "newOwner",
          "type": "address"
        }
      ],
      "name": "transferOwnership",
      "outputs": [],
      "stateMutability": "nonpayable",
      "type": "function"
    },
    {
      "inputs": [
        {
          "internalType": "uint256",
          "name": "",
          "type": "uint256"
        }
      ],
      "name": "weeklyAirdropExecuted",
      "outputs": [
        {
          "internalType": "bool",
          "name": "",
          "type": "bool"
        }
      ],
      "stateMutability": "view",
      "type": "function"
    }
  ],
  "bytecode": "0x60a060405234801561000f575f5ffd5b506040516116a73803806116a783398181016040528101906100319190610261565b805f73ffffffffffffffffffffffffffffffffffffffff168173ffffffffffffffffffffffffffffffffffffffff16036100a2575f6040517f1e4fbdf700000000000000000000000000000000000000000000000000000000815260040161009991906102c0565b60405180910390fd5b6100b18161014260201b60201c565b508260015f6101000a81548173ffffffffffffffffffffffffffffffffffffffff021916908373ffffffffffffffffffffffffffffffffffffffff1602179055508160025f6101000a81548173ffffffffffffffffffffffffffffffffffffffff021916908373ffffffffffffffffffffffffffffffffffffffff16021790555042608081815250505050506102d9565b5f5f5f9054906101000a900473ffffffffffffffffffffffffffffffffffffffff169050815f5f6101000a81548173ffffffffffffffffffffffffffffffffffffffff021916908373ffffffffffffffffffffffffffffffffffffffff1602179055508173ffffffffffffffffffffffffffffffffffffffff168173ffffffffffffffffffffffffffffffffffffffff167f8be0079c531659141344cd1fd0a4f28419497f9722a3daafe3b4186f6b6457e060405160405180910390a35050565b5f5ffd5b5f73ffffffffffffffffffffffffffffffffffffffff82169050919050565b5f61023082610207565b9050919050565b61024081610226565b811461024a575f5ffd5b50565b5f8151905061025b81610237565b92915050565b5f5f5f6060848603121561027857610277610203565b5b5f6102858682870161024d565b93505060206102968682870161024d565b92505060406102a78682870161024d565b9150509250925092565b6102ba81610226565b82525050565b5f6020820190506102d35f8301846102b1565b92915050565b6080516113a86102ff5f395f818161085f015281816109c301526109fe01526113a85ff3fe608060405234801561000f575f5ffd5b5060043610610109575f3560e01c806377de3851116100a0578063af57676b1161006f578063af57676b14610263578063ce41607a14610281578063ecda10f51461029f578063f2fde38b146102bd578063f853630a146102d957610109565b806377de3851146101eb57806383d89228146102095780638da5cb5b146102275780639c6db3fe1461024557610109565b806343f02364116100dc57806343f02364146101875780636eb227ce146101a5578063715018a6146101c357806376f5f700146101cd57610109565b80630dc0ba721461010d5780631704a8821461012b5780632c9768c81461014957806332f0887314610165575b5f5ffd5b610115610309565b6040516101229190610c28565b60405180910390f35b610133610311565b6040516101409190610cbb565b60405180910390f35b610163600480360381019061015e9190610d3d565b610336565b005b61016d610803565b60405161017e959493929190610da2565b60405180910390f35b61018f610852565b60405161019c9190610c28565b60405180910390f35b6101ad610858565b6040516101ba9190610c28565b60405180910390f35b6101cb610898565b005b6101d56108ab565b6040516101e29190610c28565b60405180910390f35b6101f36108b2565b6040516102009190610c28565b60405180910390f35b61021161093b565b60405161021e9190610c28565b60405180910390f35b61022f610941565b60405161023c9190610e13565b60405180910390f35b61024d610968565b60405161025a9190610c28565b60405180910390f35b61026b610996565b6040516102789190610e4c565b60405180910390f35b6102896109bb565b6040516102969190610c28565b60405180910390f35b6102a76109fc565b6040516102b49190610c28565b60405180910390f35b6102d760048036038101906102d29190610e8f565b610a20565b005b6102f360048036038101906102ee9190610ee4565b610aa4565b6040516103009190610f0f565b60405180910390f35b6301e1338081565b60015f9054906101000a900473ffffffffffffffffffffffffffffffffffffffff1681565b5f61033f610858565b905060035f8281526020019081526020015f205f9054906101000a900460ff161561039f576040517f08c379a000000000000000000000000000000000000000000000000000000000815260040161039690610fa8565b60405180910390fd5b5f83839050116103e4576040517f08c379a00000000000000000000000000000000000000000000000000000000081526004016103db90611010565b60405180910390fd5b606483839050111561042b576040517f08c379a00000000000000000000000000000000000000000000000000000000081526004016104229061109e565b60405180910390fd5b5f6104346108b2565b90505f60015f9054906101000a900473ffffffffffffffffffffffffffffffffffffffff1673ffffffffffffffffffffffffffffffffffffffff166318160ddd6040518163ffffffff1660e01b8152600401602060405180830381865afa1580156104a1573d5f5f3e3d5ffd5b505050506040513d601f19601f820116820180604052508101906104c591906110d0565b90505f8111610509576040517f08c379a000000000000000000000000000000000000000000000000000000000815260040161050090611145565b60405180910390fd5b5f5f90505f5f90505f5f90505b878790508110156106c9575f88888381811061053557610534611163565b5b905060200201602081019061054a9190610e8f565b90505f60015f9054906101000a900473ffffffffffffffffffffffffffffffffffffffff1673ffffffffffffffffffffffffffffffffffffffff166370a08231836040518263ffffffff1660e01b81526004016105a79190610e13565b602060405180830381865afa1580156105c2573d5f5f3e3d5ffd5b505050506040513d601f19601f820116820180604052508101906105e691906110d0565b90505f8111156106ba575f8688836105fe91906111bd565b610608919061122b565b90505f8111156106b85760025f9054906101000a900473ffffffffffffffffffffffffffffffffffffffff1673ffffffffffffffffffffffffffffffffffffffff166340c10f1984836040518363ffffffff1660e01b815260040161066e92919061125b565b5f604051808303815f87803b158015610685575f5ffd5b505af1158015610697573d5f5f3e3d5ffd5b5050505080856106a79190611282565b945085806106b4906112b5565b9650505b505b50508080600101915050610516565b505f620f42406103e8866106dd91906111bd565b6106e7919061122b565b90505f81111561077b5760025f9054906101000a900473ffffffffffffffffffffffffffffffffffffffff1673ffffffffffffffffffffffffffffffffffffffff166340c10f1933836040518363ffffffff1660e01b815260040161074d92919061125b565b5f604051808303815f87803b158015610764575f5ffd5b505af1158015610776573d5f5f3e3d5ffd5b505050505b600160035f8881526020019081526020015f205f6101000a81548160ff02191690831515021790555060045f8154809291906107b6906112b5565b9190505550857f20379f932c6b18005fe38325964b927513e9e3b2d56b71ef6c2f31d7418b17e3838533856040516107f194939291906112fc565b60405180910390a25050505050505050565b5f5f5f5f5f610810610858565b945061081a6109bb565b93506108246108b2565b925060035f8681526020019081526020015f205f9054906101000a900460ff16915060045490509091929394565b6103e881565b5f62093a807f000000000000000000000000000000000000000000000000000000000000000042610889919061133f565b610893919061122b565b905090565b6108a0610ac1565b6108a95f610b48565b565b62093a8081565b5f5f6108bc6109bb565b90505f81036108d85769d3c21bcecceda1000000915050610938565b600181036108f357699ed194db19b238c00000915050610938565b6002810361090e576969e10de76676d0800000915050610938565b60038103610929576934f086f3b33b68400000915050610938565b69152d02c7e14af68000009150505b90565b60045481565b5f5f5f9054906101000a900473ffffffffffffffffffffffffffffffffffffffff16905090565b5f5f6109726108b2565b9050620f42406103e88261098691906111bd565b610990919061122b565b91505090565b60025f9054906101000a900473ffffffffffffffffffffffffffffffffffffffff1681565b5f6301e133807f0000000000000000000000000000000000000000000000000000000000000000426109ed919061133f565b6109f7919061122b565b905090565b7f000000000000000000000000000000000000000000000000000000000000000081565b610a28610ac1565b5f73ffffffffffffffffffffffffffffffffffffffff168173ffffffffffffffffffffffffffffffffffffffff1603610a98575f6040517f1e4fbdf7000000000000000000000000000000000000000000000000000000008152600401610a8f9190610e13565b60405180910390fd5b610aa181610b48565b50565b6003602052805f5260405f205f915054906101000a900460ff1681565b610ac9610c09565b73ffffffffffffffffffffffffffffffffffffffff16610ae7610941565b73ffffffffffffffffffffffffffffffffffffffff1614610b4657610b0a610c09565b6040517f118cdaa7000000000000000000000000000000000000000000000000000000008152600401610b3d9190610e13565b60405180910390fd5b565b5f5f5f9054906101000a900473ffffffffffffffffffffffffffffffffffffffff169050815f5f6101000a81548173ffffffffffffffffffffffffffffffffffffffff021916908373ffffffffffffffffffffffffffffffffffffffff1602179055508173ffffffffffffffffffffffffffffffffffffffff168173ffffffffffffffffffffffffffffffffffffffff167f8be0079c531659141344cd1fd0a4f28419497f9722a3daafe3b4186f6b6457e060405160405180910390a35050565b5f33905090565b5f819050919050565b610c2281610c10565b82525050565b5f602082019050610c3b5f830184610c19565b92915050565b5f73ffffffffffffffffffffffffffffffffffffffff82169050919050565b5f819050919050565b5f610c83610c7e610c7984610c41565b610c60565b610c41565b9050919050565b5f610c9482610c69565b9050919050565b5f610ca582610c8a565b9050919050565b610cb581610c9b565b82525050565b5f602082019050610cce5f830184610cac565b92915050565b5f5ffd5b5f5ffd5b5f5ffd5b5f5ffd5b5f5ffd5b5f5f83601f840112610cfd57610cfc610cdc565b5b8235905067ffffffffffffffff811115610d1a57610d19610ce0565b5b602083019150836020820283011115610d3657610d35610ce4565b5b9250929050565b5f5f60208385031215610d5357610d52610cd4565b5b5f83013567ffffffffffffffff811115610d7057610d6f610cd8565b5b610d7c85828601610ce8565b92509250509250929050565b5f8115159050919050565b610d9c81610d88565b82525050565b5f60a082019050610db55f830188610c19565b610dc26020830187610c19565b610dcf6040830186610c19565b610ddc6060830185610d93565b610de96080830184610c19565b9695505050505050565b5f610dfd82610c41565b9050919050565b610e0d81610df3565b82525050565b5f602082019050610e265f830184610e04565b92915050565b5f610e3682610c8a565b9050919050565b610e4681610e2c565b82525050565b5f602082019050610e5f5f830184610e3d565b92915050565b610e6e81610df3565b8114610e78575f5ffd5b50565b5f81359050610e8981610e65565b92915050565b5f60208284031215610ea457610ea3610cd4565b5b5f610eb184828501610e7b565b91505092915050565b610ec381610c10565b8114610ecd575f5ffd5b50565b5f81359050610ede81610eba565b92915050565b5f60208284031215610ef957610ef8610cd4565b5b5f610f0684828501610ed0565b91505092915050565b5f602082019050610f225f830184610d93565b92915050565b5f82825260208201905092915050565b7f41697264726f7020616c726561647920657865637574656420746869732077655f8201527f656b000000000000000000000000000000000000000000000000000000000000602082015250565b5f610f92602283610f28565b9150610f9d82610f38565b604082019050919050565b5f6020820190508181035f830152610fbf81610f86565b9050919050565b7f4e6f20726563697069656e74732070726f7669646564000000000000000000005f82015250565b5f610ffa601683610f28565b915061100582610fc6565b602082019050919050565b5f6020820190508181035f83015261102781610fee565b9050919050565b7f546f6f206d616e7920726563697069656e747320696e2073696e676c652062615f8201527f7463680000000000000000000000000000000000000000000000000000000000602082015250565b5f611088602383610f28565b91506110938261102e565b604082019050919050565b5f6020820190508181035f8301526110b58161107c565b9050919050565b5f815190506110ca81610eba565b92915050565b5f602082840312156110e5576110e4610cd4565b5b5f6110f2848285016110bc565b91505092915050565b7f4e6f204e435420746f6b656e73206578697374000000000000000000000000005f82015250565b5f61112f601383610f28565b915061113a826110fb565b602082019050919050565b5f6020820190508181035f83015261115c81611123565b9050919050565b7f4e487b71000000000000000000000000000000000000000000000000000000005f52603260045260245ffd5b7f4e487b71000000000000000000000000000000000000000000000000000000005f52601160045260245ffd5b5f6111c782610c10565b91506111d283610c10565b92508282026111e081610c10565b915082820484148315176111f7576111f6611190565b5b5092915050565b7f4e487b71000000000000000000000000000000000000000000000000000000005f52601260045260245ffd5b5f61123582610c10565b915061124083610c10565b9250826112505761124f6111fe565b5b828204905092915050565b5f60408201905061126e5f830185610e04565b61127b6020830184610c19565b9392505050565b5f61128c82610c10565b915061129783610c10565b92508282019050808211156112af576112ae611190565b5b92915050565b5f6112bf82610c10565b91507fffffffffffffffffffffffffffffffffffffffffffffffffffffffffffffffff82036112f1576112f0611190565b5b600182019050919050565b5f60808201905061130f5f830187610c19565b61131c6020830186610c19565b6113296040830185610e04565b6113366060830184610c19565b95945050505050565b5f61134982610c10565b915061135483610c10565b925082820390508181111561136c5761136b611190565b5b9291505056fea2646970667358221220135906f63dcb73d46d98b46431a4ab61be001ab92e51dabddf85182d1431a66964736f6c634300081c0033",
  "linkReferences": {},
  "deployedLinkReferences": {},
  "immutableReferences": {
    "952": [
      {
        "length": 32,
        "start": 2143
      },
      {
        "length": 32,
        "start": 2499
      },
      {
        "length": 32,
        "start": 2558
      }
    ]
  },
  "inputSourceName": "project/contracts/Airdrop.sol",
  "buildInfoId": "solc-0_8_28-7623baf3236ba605b95a68b8360dd119f0d487c4"
}